:10000000040A00040A0006040F040A00050A010598
:10001000080107060004070804050F07030F050B76
:100020000F07010F040E0F04050F06040F05000F44
:10003000040A01060500040A01050A000508000675
:100040000000050300040600070400050C00070279
:1000500000040F000406000605000501000C0B0D4E
:100060000E020F07070C0000080007070C00000431
:100070000007070C000008000F04000604000F042E
:10008000070B0D00000E000F090C070104000F09FB
:10009000070D0C000004000F080D04080F040C0FDE
:1000A0000D08070F0B05050A000F04080F0C0008C8
:1000B0000C0E010807090C0B060E0007090C0B06B5
:1000C0000E000F010A0106020301040800000C06DD
:1000D0000C080808070B0C070B0E0007090C0000A2
:1000E0000E00070B0C070B0E000F010C0C00000D8F
:1000F0000E020F0707000A050E00070200000009A4
:10010000000707000A050E000F0C040C0C0F0F0D62
:100110000C0E0203070D0C000E0A0007080C00006D
:100120000A0000000B00000D0700000F0E0C060671
:1001300007050D00000A0304040300000D07000872
:100140000D07050D08000C0702040300000D070051
:1001500007080D07050D08000C0402040300000D3C
:100160000700090D07050D08000C04020403000038
:100170000F0A0A020201020A0A0A06020A00070618
:100180000D04040A02060A04060A02080A04080A00
:10019000020A0A040A0A020C0A0F06070A070C0CD4
:1001A0000D040A08020A08040808020A08020606E2
:1001B0000F02020100000A0E0C0200000E08060DDC
:1001C00007070D0000060007070D000004000E02DF
:1001D0000407070D0400020007070D0000000007D8
:1001E000070D0000020007070D0000040007070DBF
:1001F0000000060007070D000008000F0F020F0A9D
:100200000B020604000603060400060606040006A8
:1002100004070400060507040006000704000602A0
:100220000804000603080400060608040006040982
:1002300004000605090400060009040006020A0479
:100240000006030A040006060A0400060A0F0F0D42
:100250000C0E0604070B0C00000002070D0C00003A
:100260000104070B0C00000002070F0F080F000627
:10027000070B0C00000002070D0D00000104070B26
:100280000C000000020F0F0F0F0F0F0F0F0F0F0FBB
:100290000C0E0308050A080003020A0800030508FB
:1002A00008000305020100050E020807060C000401
:1002B0000A0407060C01050A0407060C00040A04D8
:1002C0000F0F0F0F0F0F0F0F0F0F0F0F0F0F0F0F3E
:1002D000070D0C00000A0805060900030E020805B8
:1002E00006090003020809000302060900030506C7
:1002F00009000305040900030206090003020409BA
:1003000000030504090003050209000302040900B3
:100310000302020900030F0F0F0F0F0F0F0F0F0D36
:100320000E010F07050D00000E0007050D00000E61
:10033000000F0F0D0F0F0F0D0F0E070F0F0F0F0DEB
:100340000C0E0102070B0D00000E00070B0D000044
:100350000E000F0F0F0F0F0F0F0F0F0F0F0F0F0FBD
:100360000B0D02060400060D03060400060D06062A
:100370000400060D04070400060D05070400060D21
:1003800000070400060D02080400060D030804001F
:10039000060D06080400060D04090400060D0509F3
:1003A0000400060D00090400060D020A0400060DF3
:1003B000030A0400060D060A0400060A0F040204DC
:1003C0000E0106030506040200010800050C0B00DF
:1003D0000E000D0703080F0F0F0F0F01000C07038E
:1003E00008000102020F0A010005050008090808BB
:1003F0000D020D0D020005080D0603080C04050290
:00000001FF
