:10000000F5F0F1F5F0F1F7F0F2F6F4FBF7F8FDF6A4
:10001000FFF3F6F3FBF6F2FBF6F1FBF7F9F4F5F27A
:10002000F8F5F2F8F7F7F0F7F5FCF4F5FDF4FFFE5C
:10003000F5F0F0F7F0F3F6F4FCF6F6F4F6FFF4F66C
:10004000F3FCF6F2FCF6F1FCF7F9F5F5F9F8F5F248
:10005000F9F7F7F1F7F5FDF4F5FEF6F7FEFDF9FC1B
:10006000FEF4F4F7FBFCF3F0F2F6F7FBFCF3FAF323
:10007000F6F7FBFCF3F0F4F6F7FBFCF3F0F6F6F022
:10008000F0FBF0F0FDF7F0F2FDF7F7FCF3F0FEF017
:10009000F7F7FCF8F0FEF0F7F7FCF3F0F8F0FDF7F7
:1000A000F0F4FDF7FBFBFCF2F6F3F7FBFBFCF3F6D9
:1000B000F3F7FBFBFCF4F6F3F7FBFBFCF5F6F3F7C9
:1000C000FBFBFCF6F6F3F7FBFBFCF7F6F3F7FBFBA9
:1000D000FCF8F6F3F7FBFBFCF9F6F3F7FBFBFCFA95
:1000E000F6F3F7FBFBFCFBF6F3F7FBFBFCFCF6F38C
:1000F000F7FBFBFCFDF6F3F7FBFBFCFEF6F3FFF072
:10010000FDF9F2F8F7F5F9F7F1F8F7F4FAF7F2F884
:10011000F7F3F8F7F0F9F7F6FAF7F3F7F7F5F8F77A
:10012000F4F9F7F0FAF7FFF8FDF9FEFEF2F7F3FF46
:10013000FEF0F0F0F7F3FFFEF2F0F0F7F3FFFEF35E
:10014000F0F0F7F3FFFEF4F0F0F7F3FFFEF5F0F058
:10015000F7F3FFFEF6F0F0F7F3FFFEF7F0F0F7F33A
:10016000FFFEF8F0F0F7F3FFFEF9F0F0F7F3FFFE13
:10017000FAF0F0F7F3FFFEFBF0F0F7F3FFFEFCF010
:10018000F0F7F3FFFEFDF0F0F7F3FFFEFEF0F0F7FF
:10019000F3FFFEFFF0F0FFF0F8FBF7F3FFFEF0F2E5
:1001A000FCF7F3FFFEF1F2FCF7F3FFFEF2F2FCF7CF
:1001B000F3FFFEF3F2FCF7F3FFFEF4F2FCF7F3FFBC
:1001C000FEF5F2FCF7F3FFFEF6F2FCF7F3FFFEF7A5
:1001D000F2FCF7F3FFFEF8F2FCF7F3FFFEF9F2FC96
:1001E000F7F3FFFEFAF2FCF7F3FFFEFBF2FCF7F386
:1001F000FFFEFCF2FCF7F3FFFEFDF2FCF7F3FFFE5F
:10020000FEF2FCF7F3FFFEFFF2FCF7F3FFFFF0F264
:10021000FCF7F3FFFFF1F2FCFAFFF8FDF9F7F5FD4B
:10022000F8F0FCF5F2F4F2F0F0FFF8FDF9F7F5FD67
:10023000F0F0FAF2F4F4F2F0F1FFF8FDF9F7F5FE60
:10024000F0F0F8F1F0F4F2F0F0FFF8FDFCF9FEF157
:10025000FFF7FBFBFBF0F0F0F7FCFDF0F0FAF0FD30
:10026000F7F0F0FFF8F9FEF3FFF4F3F6F0F1F5F331
:10027000F6F0F1F0F3F6F0F1F2F4F0F0F3F8FEFF3F
:10028000F8F7F3FCF0F0F0F0F7F3FCF0F1F0F0F732
:10029000F3FCF0F2F0F0F7F3FCF0F3F0F0F7F3FC1E
:1002A000F0F4F0F0F7F3FCF0F5F0F0F7F3FCF0F613
:1002B000F0F0F7F3FCF0F7F0F0F7F3FCF0F8F0F003
:1002C000F7F3FCF0F9F0F0F7F3FCF0FAF0F0F7F3E5
:1002D000FCF0FBF0F0F7F3FCF0FCF0F0F7F3FCF0CF
:1002E000FDF0F0F7F3FCF0FEF0F0F9F7F3FCF0FFAF
:1002F000F0F0FFFDF9F7F5FFF0F0F6F2F2F6F2F0AC
:10030000F1FFFDF9FCFEF4F8F7FBFCF0F0F0F2F77A
:10031000FDFCF0F0F1F4F7FBFCF0F0F0F2F7FFFF7A
:10032000F8FFF0F6F0F0FBF0F0FFF0FDF7FBF4FC67
:10033000F2F1F8F5F1FFF8F4FFFBF1F0FCFAF1F05F
:10034000F9F5F2FAF8F6F0FCFAF2F0F0FAF9F0F555
:10035000F8F5FFF0F2F9FAF8F0F5FAF5FDF9F7FB28
:10036000FCF6F2F0F0F8F8F8F7FBFCF0F0F2F0FF32
:10037000FDF9F7FFFBF0F0F0F1F8F8F8FCFEF1FF03
:10038000F7F5FDF0F0FEF0F0F0FBF0F0FFFDF2F419
:10039000F0F0F3FFFDF9F8F7FEFDFAF0FCF6F7F1E7
:1003A000FEF0F6FCF0F7F7FEF4F2FEF2FFF0F0F0EC
:1003B000F0F0F0F0F0F0F0F0F0F0F0F0F0F0F0F03D
:1003C000F1F3F5F7F9FBFDFFFFFFFFFFFFFFFFFE76
:1003D000FEFEFEFDFDFDFDFCFCFCFCFCFCFCFCFC53
:1003E000FCFCFCFCFCFCFBFBFBFBFAFAFAFAF9F95F
:1003F000F8F8F7F7F6F6F5F5F4F4F3F3F2F2F1F1B5
:00000001FF
