:10000000060F0F060F0F070F0107050905030E075F
:100010000F01040C0E040C0E060F0F040C0E040D41
:1000200000050B00040D0006080B07070B07050968
:10003000070000070F0207050A05030F060B01055D
:100040000105060204070000060B01040600050B6B
:1000500001040D0106080C07070C07050A00000043
:100060000B07030F0E00020C07030F0E01020C0713
:10007000030F0E02020C07030F0E04020C07030FFE
:100080000E05020C07030F0E06020C07030F0E07E6
:10009000020C07030F0E08020C07030F0E09020CD7
:1000A00007030F0E0A020C07030F0E0B020C0703C7
:1000B0000F0E0C020C07030F0E0D020C07030F0EA0
:1000C0000E020C07030F0E0F020C0A0F080A0F0096
:1000D0000D090E080807030F0E00000007030F0E9E
:1000E00002000007030F0E03000007030F0E0400B9
:1000F0000007030F0E05000007030F0E06000007A0
:10010000030F0E07000007030F0E08000007030F80
:100110000E0900000F09020205000004020500009C
:1001200006020500000402050000050205000000AB
:10013000020500000102050000080F0000000D0983
:100140000C07090D08000E0207090D08010E020731
:10015000090D08020E020807090D08030E0207091F
:100160000D08040E0207090D08050E0207090D0807
:10017000060E0207090D08070E0207090D08080EF2
:100180000207090D08090E0207090D080A0E0207E9
:10019000090D080B0E0207090D080C0E0207090DC8
:1001A000080D0E0207090D080E0E020F00000000D8
:1001B0000D070B0B0C00060309070B0B0C020603C3
:1001C000070B0B0C04060308070B0B0C06060307B2
:1001D0000B0B0C080603070B0B0C0A0603070B0B93
:1001E0000C0C0603070B0B0C0E0603070B0B0D0084
:1001F0000603070B0B0D020603070B0B0D0406038A
:10020000070B0B0D060603070B0B0D080603070B68
:100210000B0D0A0603070B0B0D0C0603070B0B0D4A
:100220000E06030F080809070B0C00090802070B4C
:100230000C000A0802070B0C000B0802070B0C004D
:100240000C0802070B0C000D0802070B0C000E082F
:1002500002070B0C000F0802070B0C010008020735
:100260000B0C01010802070B0C01020802070B0C22
:1002700001030802070B0C01040802070B0C01051F
:100280000802070B0C01060802080F0D09070D0CE8
:10029000020000030C070D0C000000000E010F0708
:1002A000050D00000E0000000B00000F0000000014
:1002B0000D080809070D0B09000804070D0B0901BB
:1002C0000804070D0B09020804070D0B09030804B5
:1002D000070D0B09040804070D0B09050804070D99
:1002E0000B09060804070D0B09070804070D0B0985
:1002F000080804070D0B090908040A0F0000000D87
:100300000902060700030C0206070003080206079D
:1003100000030306070003060607000304060700A0
:100320000305060700030006070003020807000391
:100330000308060003060806000304080600030578
:10034000080600030008050003020A050003030A6B
:10035000040003060A0400030F0D090C0E010F0729
:100360000B0B0B000000070C0D00000A000D07002E
:10037000000F0D070B0C060200000F0D090C0E0EEE
:1003800003080808080808070B0B0C010704070BF3
:100390000B0C020704070B0B0C030704070B0B0CD9
:1003A000040704070B0B0C050704070B0B0C0607CF
:1003B00004070B0B0C070704070B0B0C08070407BB
:1003C0000B0B0C090704070B0B0C0A0704070B0B9C
:1003D0000C0B0704070B0B0C0C0704070B0B0C0D85
:1003E0000704070B0B0C0E0704070B0B0C0F07047D
:1003F0000F0D09070E0D0A000C0802060000030F7E
:00000001FF
