:10000000FEF9F9FEF3FAF7FEFDFAF0FCFBF7F3FF59
:10001000FEF0F4F0F7F3FFFEFAF0F0F0F0FBF0F092
:10002000FFF7FCFDF0F0FAF0F7FCFDF0F0FAF0FF5E
:10003000F4F9FFF4FAF0F4F2F1F7F5FDF7F5FDF756
:10004000F5FDF7F5FDF7F5FDF7F5FDF7F5FDF7F52E
:10005000FDF4F0F3F7F5FDF4F5FDF7FFF0F7F5FE2D
:10006000F0F0F8F1F2F6F1F0F0FFF2F0F2FFF9FB48
:10007000F0F7F2F1F0F5FEFBF0F5FBF5F0F6F2F13A
:10008000F0F5F7FFF0F6F7F9F0F6FAF9F0F7F5FD0D
:10009000F0F6FAF9F0F7F9F3F0FDF2FAF0F0F0FF0C
:1000A000F8F4FEF0F8F3F1FDF0F8F3F2FCF0F8F3F9
:1000B000F2F8F1F8F2FFF0FDF1F6F4FCFEF4FDF0D9
:1000C000F0F3FCF6F0F1FCF6F0FEF8F5F0FCF6F5D6
:1000D000F1F8F0FEFAF5FFF3F1F0FCFAFFF8FDF0AD
:1000E000F8F8F0F2F0F0F8FDF0F0FBF5F0FEFAF4BD
:1000F000F0F8FAF6F0FDF1F6F4FCFDF6FDF0F0F0A4
:10010000FCF6F0F3FCF6FDFCFDF0F0F2F8F5F0F390
:10011000F6F5F0F2FAF5F1F8FEF7F1F0F8F8FFFD78
:10012000FDF0FCFAF1F5FDF0F0F5FCF5F0F4FFF070
:10013000F0FFF2F9F0F2F0F2FAFDF0F2F0F0F8FD73
:10014000F0FDFBFDFBF9F0F2FAF6F0F1FAF4F0FD48
:10015000F1F6F4FCFDFBFDF0F0F1FCF6FDFFFBF029
:10016000F0F3FCF5F0F2F0F0FAFDFEF3FFF0F0FD35
:10017000FDF0F0F4FCF5F0F6FFF0F0F2F2F5F0F23D
:10018000F0F2FAFDFFFDFDF0F8F8F0F1FAF4F0F20C
:10019000F0F0F8FDF0F0FEF6F0F0F4F5F0FAF3F51B
:1001A000F8F5F0F5FAF5F0FEF2F6F4FCFFF1FAF2EC
:1001B000F0F4FAF9F0F5F8F5F0F8FAF9F0F0F8F5EE
:1001C000F0F1FAF9F0F1F8F5F1FFFAF9F0F3F8F5DA
:1001D000F0F1FAF9F0F2F8F5F0F1FAF9F0FEF2F6D2
:1001E000F4FCFFF1FAF2F0F4FAF9F0F5F8F5F0F6B4
:1001F000FAF9F0F0F8F5F0F4FAF9F0F1F8F5F0F3B7
:10020000FAF9F0F3F8F5F0F5FAF9F0F2F8F5FFFF86
:10021000FAF9F0FEF2F6F4FCF4F9FAF2F0F5FAF974
:10022000F0F5F8F5FEF6FAF9F0F4F8F5F0F5FAF96C
:10023000F0F3F8F5F1F0FAF9F0F2F8F5F0FFFAF969
:10024000F0F1F8F5F0F1FAF9F0FEF2F6F4FCF4F959
:10025000FAF2F0F5FAF9F0F5F8F5FCF6FAF9F0F43F
:10026000F8F5F0F7FAF9F0F3F8F5F0F1FAF9F0F241
:10027000F8F5F0FFFAF9F0F1F8F5F2FEFAF9F0FD11
:10028000F1F6F4FCFDF7FFF0FDF9FDF0F0FFFCF9ED
:10029000F0F0FEF6F0FEF8F5F0F1F6F9F1F8F0FE08
:1002A000FAF5F0FFFDF0F0F9FCF9F0F4FFF0F0FFE3
:1002B000F2F9F0F2F0F2FAFDFFF3F1F0FCFAFFF8D8
:1002C000FDF0F8F8F0F2F0F0F8FDF0F0FBF5F0FEDC
:1002D000FAF4F0F1FAF2F0FEF2F6F4FCF9F7FAF2C1
:1002E000F0F4FAF9FFFBF1F0FCFAF0F0F9F5F0F0B8
:1002F000FAF9F0F8FAF6F0FCF8F6F1F0FAF2F0F8A4
:10030000F8F6F0F7FAF2F0FEF2F6F4FCF0F1FAF695
:10031000F0F0FAF5FEF5F1F0F8F8FCFAF0F0F0F094
:10032000F9F9F0F0F0F0F7F9F1F8F0FAF0FAF0FA84
:10033000F0FAF0F4F6F3FBFDFCFAF0F0F0F0F9F966
:10034000F0FFF2F9F0F4F6F3FBFDF0F1FAF0FAFA4F
:10035000F0FAF0FAF0FFF2F9F0F5FAF5FDFEF0F040
:10036000F0FEF2F6F4FCF9F9FAF2F0F6FAF9F0FC24
:10037000F8F6F1F1FAF2F0F8F8F6F0F3FAF2F0FE2E
:10038000F2F6F4FCF0FEF2F6F4FCFFF1FAF2F0F40F
:10039000FAF9F0F5F8F5F0FBFAF9F0F0F8F5F0F10C
:1003A000FAF9F0F1F8F5F0FFFAF9F0F3F8F5FFFBE0
:1003B000FAF9F0F2F8F5F0F4FAF9F0FEF2F6F4FCDE
:1003C000FFF1FAF2F0F4FAF9F0F5F8F5F0FDFAF9C8
:1003D000F0F0F8F5F0F7FAF9F0F1F8F5F0F1FAF9D4
:1003E000F0F3F8F5F0F5FAF9F0F2F8F5FFF0FAF9B4
:1003F000F8FEF1F4F2F6F0FAF7F0F0FBF0F0FFFFA0
:00000001FF
