:100000000400030D02080000080F0A08070B0B0F7D
:100010000F0E000E0206040C080B0A0200050A0966
:10002000000C080601010A020008080600070A027F
:1000300007050D07050D040A0907050D07050D073E
:10004000050D040D0607050D07060007050D07053C
:100050000D07050D07050D07050D07050D0D0F040F
:100060000005090B0005090B000703070005090B34
:100070000005060B0007060D0006030D0005090B21
:1000800000070A030005090B00030D0300050D011D
:1000900000060A0900060703000600070005060B14
:1000A0000C070F0B0B0000000F070C0D00000A00DF
:1000B0000F06000E0805000D0106040C0E040D00CD
:1000C00000030C0600010C06000E0805000C0605D6
:1000D0000108000E0A050F0301000C0A0F080D00AD
:1000E000080800020000080D00000B05000E0A04BD
:1000F00000080A06000D0106040C0D060D000000A4
:100100000C0600030C060D0C0D0000020805000390
:10011000060500020A0501080E07010008080F0D78
:100120000D000C0A01050D0000050C0500040F0070
:10013000000F0209000200020A0D00020000080D73
:10014000000D0B0D0B0900020A0600010A04000D48
:100150000106040C0D0B0D0000010C060D0F0B0029
:1001600000030C05000200000A0D0E030F00000D35
:100170000D0000040C0500060F000002020500023D
:1001800000020A0D0F0D0D00080800010A0400020C
:100190000000080D00000E0600000405000A03051B
:1001A000080500050A0500000000000E0206040C08
:1001B000080B0A0200050A09000C080608070A02D3
:1001C0000008080600030A02000E0206040C0907D4
:1001D0000A0200040A090F0B01000C0A00000905BD
:1001E00000000A0900080A06000C08060A010A02B3
:1001F0000008080600050A02000E0206040C0F01A2
:100200000A0200040A0900050805000B0A0900009B
:10021000080500010A090001080500080A09000391
:1002200008050F060A090002080500000A09000E69
:100230000206040C04090A0200050A090005080563
:100240000C060A0900040805000E0A090003080547
:1002500000090A0900020805000F0A090001080543
:100260000F0F0A09000E0206040C0F010A02000417
:100270000A090005080500060A0900000805000132
:100280000A0900010805070F0A0900030805000113
:100290000A090002080500010A09000E0206040C02
:1002A0000F010A0200040A0900050805000D0A09E9
:1002B0000000080500020A090001080500010A09FA
:1002C0000003080500030A0900020805000C0A09DA
:1002D000000E0206040C0F010A0200040A090005C0
:1002E0000805000C0A090000080500040A090001BD
:1002F000080500030A090003080500050A090002B1
:1003000008050F0F0A09000E0206040C00010A0678
:1003100000000A050E05010008080C0A0000000094
:1003200009090000000007090108000A000A000A84
:10033000000A000406030B0D0C0A00000000090966
:10034000000F0209000406030B0D00010A000A0A4F
:10035000000A000A000F020900050A050D0E000040
:10036000070E0D0A000C050F000E0206040C09070B
:100370000A0200040A09000E0206040C080B0A0215
:1003800000050A09000C0806070D0A020008080605
:1003900000030A02000E0206040C04090A0200050A
:1003A0000A09000508050C060A09000408050005ED
:1003B0000A090003080500010A0900020805000FE8
:1003C0000A0900010805020E0A09000E0206040CC3
:1003D00004090A0200050A09000508050E060A09B3
:1003E0000004080500080A090003080502000A09BC
:1003F00000020805000F0A090001080500010A09AA
:00000001FF
