:10000000050500000E0206040C09010A0200060A9A
:1000100009000D080600060A02000C0806070D0A72
:10002000020008080600030A02000604060E00008B
:1000300005040E050A0806010F070902050A08044F
:10004000050D04050D04050D04050D04050D04053D
:100050000D04050D04050D050A0706010F0E00002D
:100060000000000000050C0300050E090000000060
:10007000000600050000000000030C0C00050B0842
:100080000006070100050F050006030B0005090225
:1000900000060A0900070305070E0F000008000FFD
:1000A000000D0106040C0D090D0000030C060001F3
:1000B0000C06000E0805000C06050108000E0A05D6
:1000C000000D0D00000D0C0500040F00000F0209CB
:1000D000000200020A0D0F0301000C0A0F080D00B8
:1000E000080800020000080D00000B05000E0A04BD
:1000F00000080A06000D0106040C0D060D000000A4
:100100000C0600030C060D0C0D0000020805000390
:10011000060500020A0501080E07010008080F0D78
:100120000D000C0A01050D0000050C0500040F0070
:10013000000F0209000200020A0D00020000080D73
:10014000000F08040B0900020A0600010A040D0C46
:10015000020806030904060806040806070002054B
:100160000806050906070002060806040804050833
:1001700006050904020B06020A0600090A00080A1D
:1001800005090A05080A040806050904020A060EFC
:10019000020F01080A02090A0009060509060408F7
:1001A000060309060408040F0D0C0E0406050B08CF
:1001B000040A08030B08020A0801080400090605DE
:1001C00009040408020F080501000E0206040C09C8
:1001D000010A0200060A09000D0806000B0A0200C7
:1001E0000C080600070A020008080600010A0200BF
:1001F0000E0206040C09010A0200060A09000D0895
:100200000600070A02000C0806080B0A020008088C
:100210000600050A02080808070E0F0F080C000761
:100220000E0F0F000A000F010A020006000E020660
:10023000040C09010A0200060A09000D080600095B
:100240000A02000C08060A0C0A020008080600034D
:100250000A02000308050F060A0900020805000447
:100260000A09000E0206040C0F010A0200040A0922
:1002700000050805000A0A090000080500030A092C
:100280000001080502000A090003080504010A0923
:100290000002080500010A09000E0206040C0F0105
:1002A0000A0200040A090005080500080A090000FE
:1002B000080500050A090001080500030A090003F2
:1002C000080500060A09000208050F060A09000EC3
:1002D0000206040C09070A0200040A090F0B0100B8
:1002E0000C0A0001090500000A0900030A06000DB6
:1002F0000806000C0A02000C08060F080A02000893
:10030000080600070A02000E0206040C00010A0695
:1003100000000A050E05010008080C0A0000000094
:1003200009090000000007090108000A000A000A84
:10033000000A000406030B0D0C0A00000000090966
:10034000000F0209000406030B0D00010A000A0A4F
:10035000000A000A000F020900050A05000E020645
:10036000040C0F010A0200040A0900050805000D2B
:100370000A090000080500060A0900010805000135
:100380000A090003080500050A0900020805000122
:100390000A090D0C040A05030B07020A05000907E8
:1003A00005090504080701080401080507000B00FA
:1003B00009070509070408070309040408040F09CD
:1003C0000F0F0E0E0D0D0C0C0B0B0A0A09090A0A71
:1003D0000B0B0C0C0D0D0E0E0F0F0E0E0D0D0C0C4D
:1003E0000B0B0A0A0B0B0C0C0D0D0E0E0F0F0E0E45
:1003F0000D0D0C0C0B0B0A0A0B0B080C0D0D0E0E41
:00000001FF
