:10000000050B030D000E0206040C080B0A02000586
:100010000A09000D0806000A0A02000C080603007F
:100020000A020008080600040A02080600070A027D
:1000300004090D050B0104060A050C00050A090454
:10004000090D04090D04090D04090D04090D040925
:100050000D04090D04090D04090D04060A0D0F0411
:100060000005090B00050C0900070E01040206003B
:100070000A0700000B00000F0006030D000703072E
:1000800000050F0F00070A0300030C0D00060A0904
:100090000006070300050A030007060D0D0E000009
:1000A000000D000D0106040C0D090D0000030C06E7
:1000B00000010C06000E0805000C06050108000EE4
:1000C0000A05000D0D00000D0C0500040F00000FC7
:1000D0000209000200020A0D0F0301000C0A0F08BA
:1000E0000D00080800020000080D00000B05000EBE
:1000F0000A0400080A06000D0106040C0D0B0D0091
:1001000000010C060D0F0B0000030C05000200009F
:100110000A0D0E030F00000D0D0000040C05000673
:100120000F0000020205000200020A0D0F0D0D0073
:10013000080800010A0400020000080D00000E0675
:1001400000000405000A0305080500050A05000D66
:100150000106040C0D060D0000000C0600030C0641
:100160000D0C0D00000208050003060500020A053B
:1001700001080E07010008080F0D0D000C0A01050B
:100180000D0000050C0500040F00000F020900021D
:1001900000020A0D00020000080D000001000B091A
:1001A00000020A0600010A040D070A0D00000D00F6
:1001B0000F0D0C0E020F040A07020A07070B0B0FA4
:1001C000020A0004080F0A06000E0206040C0909C0
:1001D0000A0200040A090F0B01000C0A00010905BC
:1001E00000000A0900030A06000D0806000D0A02B5
:1001F000000C08060A0B0A020008080600020A02A0
:10020000000E0206040C080B0A0200050A09000D84
:10021000080600010A02000C080608080A02000885
:10022000080600050A02000E0206040C040B0A026E
:1002300000050A090005080500080A09000008056C
:1002400000010A0900010805020F0A090003080558
:1002500000010A090002080500010A090001080559
:100260000F0F0A09000E0206040C040B0A02000517
:100270000A090005080500060A0900000805000132
:100280000A090001080500050A090003080508031A
:100290000A090002080500000A09000E0206040C03
:1002A000040B0A0200050A0900050805000C0A09EA
:1002B0000000080500040A090001080500020A09F7
:1002C000000308050F0E0A0900020805000C0A09C0
:1002D000000E0206040C040B0A0200050A090005C0
:1002E0000805000B0A090000080500010A090001C1
:1002F000080500080A09000308050F0C0A09000296
:10030000080500000A09000E0206040C00010A0696
:1003100000000A050E05010008080C0A0000000094
:1003200009090000000007090108000A000A000A84
:10033000000A000406030B0D0C0A00000000090966
:10034000000F0209000406030B0D00010A000A0A4F
:10035000000A000A000F020900050A05000E000E3F
:100360000206040C040B0A0200050A090005080530
:1003700000070A090000080500010A090001080534
:1003800000020A09000308050A0A0A090002080512
:1003900000010A09000E0206040C0F010A02000403
:1003A0000A09000508050C060A0900040805000EE4
:1003B0000A090003080500010A0900020805000FE8
:1003C0000A0900010805020E0A09000E0206040CC3
:1003D0000F010A0200040A09000508050E060A09B1
:1003E0000004080500090A090003080502000A09BB
:1003F00000020805000F0A090001080500010A09AA
:00000001FF
