:1000000005030B0D000E0206040C09030A0200058D
:100010000A09000D080600080A02000C080608027A
:100020000A020008080600010A0200090C0008057F
:1000300006030004090D04060F05030A060D0D044E
:10004000090D04090D04090D04090D070B06040927
:100050000D04090D04090D04090D04060F0D00001F
:10006000070A03070006000500060707000A000C40
:10007000070E0E00000A000F00050A0B00050D0117
:1000800000030C0D0005070300050C0900040B0715
:10009000000604070007050900040D0D0D0E000001
:1000A0000004000D0106040C0D090D0000020C06F1
:1000B00000010C06000E0805000C06050108000EE4
:1000C0000A05000D0D00000D0C0500040F00000FC7
:1000D0000209000200020A0D0F0301000C0A0F08BA
:1000E0000D00080800020000080D00000B05000EBE
:1000F0000A0400080A06000E0206040C040D0A0297
:1001000000050A09080108050E000A090000080593
:100110000B000A09000E0206040C09030A0200057E
:100120000A09000D0806000E0A02000C0806020A61
:100130000A020008080600030A020D030706050765
:10014000060209060407060106060608060D05094B
:100150000200080F0D06000D0106040C0D0E0D0027
:1001600000010E0600000E060E080D0000010C0531
:1001700000030A0500030E060F0D0D00080800031A
:100180000A04000200000C0E0F0D0D000808000309
:100190000A04000200000E0E0003080500000A0514
:1001A00000020000080D0F0F0A09000E0206040CE1
:1001B00009030A0200050A09000D080600090A02DF
:1001C000000C080605060A020008080600010A02DB
:1001D000000E0206040C09090A0200040A090F0BAA
:1001E00001000C0A0001090500000A0900030A06C3
:1001F000000D080600060A02000C080605040A02A3
:100200000008080600010A02000E0206040C090399
:100210000A0200050A09000D080600070A02000C80
:1002200008060F080A020008080600020A02000E6B
:100230000D02060400070404060402060403090470
:100240000007040406040209040507040307040464
:1002500008020F0F000D0106040C0E000D00000037
:100260000C0600000C060E060D0008080002000037
:10027000080E00000A0200020D0000010209000041
:100280000A06000208050807040900040900000224
:100290000A05000202060001020601080000080427
:1002A0000A000A00010203040506070809080706F8
:1002B000050403020100000E0206040C040D0A02EC
:1002C00000050A09080108050F070A0900000805CA
:1002D00000030A090B08020B08070B0B0F0D03079D
:1002E00008050608000708020908030908050808A8
:1002F000000908020B08030B08050A08000B080296
:100300000D08030D080F000E0206040C00010A067A
:1003100000000A050E05010008080C0A0000000094
:1003200009090000000007090108000A000A000A84
:10033000000A000406030B0D0C0A00000000090966
:10034000000F0209000406030B0D00010A000A0A4F
:10035000000A000A000F020900050A050D03030048
:100360000D0701000C0A000D0106040C00030F002C
:10037000000F0209000200020A0D0E080D00000223
:100380000C060E0C0D0000000C060F0D0D000808E9
:1003900001010A0000020000080D00020000060D25
:1003A000000F020900060A040B0D000208050003F5
:1003B0000A09000F0A0207040D040E0A000F000DBF
:1003C0000F0F0F0F0F0F0F0F0F0F0F0F0F0F0F0F3D
:1003D0000E0E0E0E0D0D0D0D0C0C0C0C0B0B0B0B55
:1003E0000A0A0A0A09090909080808080707070785
:1003F00006060606050505050404040403030303B5
:00000001FF
