:1000000007050C00000E0206040C09030A02000595
:100010000A09000D080600040A02000C08060F0C6D
:100020000A020008080600010A02020A0000030F83
:1000300004090D07050D04060804090D07060C0444
:10004000090D04090D04090D04090D04090D040925
:100050000D04090D04090D07050E04060800000033
:100060000000000000050703070C0C00000E000F45
:1000700000030C0D0006070300070A030006070330
:100080000006030D0007040B00050A0B00050D0117
:1000900000060A0900060007000000000D0E00001F
:1000A0000000000D0106040C0D090D0000030C06F4
:1000B00000010C06000E0805000C06050108000EE4
:1000C0000A05000D0D00000D0C0500040F00000FC7
:1000D0000209000200020A0D0F0301000C0A0F08BA
:1000E0000D00080800020000080D00000B05000EBE
:1000F0000A0400080A06000D0106040C0D0B0D0091
:1001000000010C060D0F0B0000030C05000200009F
:100110000A0D0E030F00000D0D0000040C05000673
:100120000F0000020205000200020A0D0F0D0D0073
:10013000080800010A0400020000080D00000E0675
:1001400000000405000A0305080500050A05000D66
:100150000106040C0D060D0000000C0600030C0641
:100160000D0C0D00000208050003060500020A053B
:1001700001080E07010008080F0D0D000C0A01050B
:100180000D0000050C0500040F00000F020900021D
:1001900000020A0D00020000080D000001000B091A
:1001A00000020A0600010A040D07000E0206040CF4
:1001B00009030A0200050A09000D080600010A02E7
:1001C000000C0806010F0A020008080600080A02CF
:1001D000000E0206040C09090A0200040A090F0BAA
:1001E00001000C0A0001090500000A0900030A06C3
:1001F000000D0806000A0A02000C080600030A02A5
:100200000008080600010A02000E0206040C090399
:100210000A0200050A09000D0806000B0A02000C7C
:100220000806070F0A020008080600020A02000E6C
:100230000206040C0F010A0200040A090005080561
:100240000C060A0900040805000D0A090003080548
:1002500001010A090002080500000A090001080559
:100260000F0F0A09000E0206040C040B0A02000517
:100270000A090005080500080A0900000805000130
:100280000A0900010805040F0A0900030805000413
:100290000A090002080500040A09000E0206040CFF
:1002A000040B0A0200050A090005080500070A09EF
:1002B0000000080500050A090001080500020A09F6
:1002C0000003080500050A090002080500010A09E3
:1002D000000E0206040C040B0A0200050A090005C0
:1002E0000805000C0A090000080500070A090001BA
:1002F000080500010A090003080500060A090002B2
:10030000080500000A09000E0206040C00010A0696
:1003100000000A050E05010008080C0A0000000094
:1003200009090000000007090108000A000A000A84
:10033000000A000406030B0D0C0A00000000090966
:10034000000F0209000406030B0D00010A000A0A4F
:10035000000A000A000F020900050A050D0C0E0133
:100360000F020A050007020A0000030F020800003E
:10037000030F000E0206040C0F010A0200040A0912
:10038000000508050E060A090004080500090A0907
:100390000003080501080A0900020805000F0A0900
:1003A0000001080500020A09000D010C040C0D0EE5
:1003B0000F000F040D0000010C060E080F000C0AC0
:1003C0000F0D0100080800050A04000E0D000006CC
:1003D0000C0900040F00000F0209000200020A0DC0
:1003E00000020000080D070F0A0900020F000000BC
:1003F0000A0900050805010F0209000201040A0D9F
:00000001FF
